{"abi":[{"type":"constructor","inputs":[{"name":"_usdt","type":"address","internalType":"address"}],"stateMutability":"nonpayable"},{"type":"function","name":"balances","inputs":[{"name":"","type":"address","internalType":"address"}],"outputs":[{"name":"","type":"uint256","internalType":"uint256"}],"stateMutability":"view"},{"type":"function","name":"deposit","inputs":[{"name":"amount","type":"uint256","internalType":"uint256"}],"outputs":[],"stateMutability":"nonpayable"},{"type":"function","name":"getBalance","inputs":[{"name":"user","type":"address","internalType":"address"}],"outputs":[{"name":"","type":"uint256","internalType":"uint256"}],"stateMutability":"view"},{"type":"function","name":"totalDeposits","inputs":[],"outputs":[{"name":"","type":"uint256","internalType":"uint256"}],"stateMutability":"view"},{"type":"function","name":"usdt","inputs":[],"outputs":[{"name":"","type":"address","internalType":"contract IERC20"}],"stateMutability":"view"},{"type":"function","name":"withdraw","inputs":[{"name":"amount","type":"uint256","internalType":"uint256"}],"outputs":[],"stateMutability":"nonpayable"}],"bytecode":{"object":"0x608060405234801561000f575f5ffd5b50604051610abe380380610abe833981810160405281019061003191906100d4565b805f5f6101000a81548173ffffffffffffffffffffffffffffffffffffffff021916908373ffffffffffffffffffffffffffffffffffffffff160217905550506100ff565b5f5ffd5b5f73ffffffffffffffffffffffffffffffffffffffff82169050919050565b5f6100a38261007a565b9050919050565b6100b381610099565b81146100bd575f5ffd5b50565b5f815190506100ce816100aa565b92915050565b5f602082840312156100e9576100e8610076565b5b5f6100f6848285016100c0565b91505092915050565b6109b28061010c5f395ff3fe608060405234801561000f575f5ffd5b5060043610610060575f3560e01c806327e235e3146100645780632e1a7d4d146100945780632f48ab7d146100b05780637d882097146100ce578063b6b55f25146100ec578063f8b2cb4f14610108575b5f5ffd5b61007e600480360381019061007991906105b1565b610138565b60405161008b91906105f4565b60405180910390f35b6100ae60048036038101906100a99190610637565b61014d565b005b6100b8610357565b6040516100c591906106bd565b60405180910390f35b6100d661037b565b6040516100e391906105f4565b60405180910390f35b61010660048036038101906101019190610637565b610381565b005b610122600480360381019061011d91906105b1565b61050d565b60405161012f91906105f4565b60405180910390f35b6001602052805f5260405f205f915090505481565b5f811161018f576040517f08c379a000000000000000000000000000000000000000000000000000000000815260040161018690610730565b60405180910390fd5b8060015f3373ffffffffffffffffffffffffffffffffffffffff1673ffffffffffffffffffffffffffffffffffffffff1681526020019081526020015f2054101561020f576040517f08c379a000000000000000000000000000000000000000000000000000000000815260040161020690610798565b60405180910390fd5b8060015f3373ffffffffffffffffffffffffffffffffffffffff1673ffffffffffffffffffffffffffffffffffffffff1681526020019081526020015f205f82825461025b91906107e3565b925050819055508060025f82825461027391906107e3565b925050819055505f5f9054906101000a900473ffffffffffffffffffffffffffffffffffffffff1673ffffffffffffffffffffffffffffffffffffffff1663a9059cbb33836040518363ffffffff1660e01b81526004016102d5929190610825565b6020604051808303815f875af11580156102f1573d5f5f3e3d5ffd5b505050506040513d601f19601f820116820180604052508101906103159190610881565b610354576040517f08c379a000000000000000000000000000000000000000000000000000000000815260040161034b906108f6565b60405180910390fd5b50565b5f5f9054906101000a900473ffffffffffffffffffffffffffffffffffffffff1681565b60025481565b5f81116103c3576040517f08c379a00000000000000000000000000000000000000000000000000000000081526004016103ba90610730565b60405180910390fd5b5f5f9054906101000a900473ffffffffffffffffffffffffffffffffffffffff1673ffffffffffffffffffffffffffffffffffffffff166323b872dd3330846040518463ffffffff1660e01b815260040161042093929190610914565b6020604051808303815f875af115801561043c573d5f5f3e3d5ffd5b505050506040513d601f19601f820116820180604052508101906104609190610881565b61049f576040517f08c379a0000000000000000000000000000000000000000000000000000000008152600401610496906108f6565b60405180910390fd5b8060015f3373ffffffffffffffffffffffffffffffffffffffff1673ffffffffffffffffffffffffffffffffffffffff1681526020019081526020015f205f8282546104eb9190610949565b925050819055508060025f8282546105039190610949565b9250508190555050565b5f60015f8373ffffffffffffffffffffffffffffffffffffffff1673ffffffffffffffffffffffffffffffffffffffff1681526020019081526020015f20549050919050565b5f5ffd5b5f73ffffffffffffffffffffffffffffffffffffffff82169050919050565b5f61058082610557565b9050919050565b61059081610576565b811461059a575f5ffd5b50565b5f813590506105ab81610587565b92915050565b5f602082840312156105c6576105c5610553565b5b5f6105d38482850161059d565b91505092915050565b5f819050919050565b6105ee816105dc565b82525050565b5f6020820190506106075f8301846105e5565b92915050565b610616816105dc565b8114610620575f5ffd5b50565b5f813590506106318161060d565b92915050565b5f6020828403121561064c5761064b610553565b5b5f61065984828501610623565b91505092915050565b5f819050919050565b5f61068561068061067b84610557565b610662565b610557565b9050919050565b5f6106968261066b565b9050919050565b5f6106a78261068c565b9050919050565b6106b78161069d565b82525050565b5f6020820190506106d05f8301846106ae565b92915050565b5f82825260208201905092915050565b7f416d6f756e74206d757374206265203e203000000000000000000000000000005f82015250565b5f61071a6012836106d6565b9150610725826106e6565b602082019050919050565b5f6020820190508181035f8301526107478161070e565b9050919050565b7f496e73756666696369656e742062616c616e63650000000000000000000000005f82015250565b5f6107826014836106d6565b915061078d8261074e565b602082019050919050565b5f6020820190508181035f8301526107af81610776565b9050919050565b7f4e487b71000000000000000000000000000000000000000000000000000000005f52601160045260245ffd5b5f6107ed826105dc565b91506107f8836105dc565b92508282039050818111156108105761080f6107b6565b5b92915050565b61081f81610576565b82525050565b5f6040820190506108385f830185610816565b61084560208301846105e5565b9392505050565b5f8115159050919050565b6108608161084c565b811461086a575f5ffd5b50565b5f8151905061087b81610857565b92915050565b5f6020828403121561089657610895610553565b5b5f6108a38482850161086d565b91505092915050565b7f55534454207472616e73666572206661696c65640000000000000000000000005f82015250565b5f6108e06014836106d6565b91506108eb826108ac565b602082019050919050565b5f6020820190508181035f83015261090d816108d4565b9050919050565b5f6060820190506109275f830186610816565b6109346020830185610816565b61094160408301846105e5565b949350505050565b5f610953826105dc565b915061095e836105dc565b9250828201905080821115610976576109756107b6565b5b9291505056fea2646970667358221220d5660a783defd101db23c69e08b6eff2335e528b1b2a24833b97077ea7728b2364736f6c634300081e0033","linkReferences":{}},"methodIdentifiers":{"balances(address)":"27e235e3","deposit(uint256)":"b6b55f25","getBalance(address)":"f8b2cb4f","totalDeposits()":"7d882097","usdt()":"2f48ab7d","withdraw(uint256)":"2e1a7d4d"},"id":21}